:020000040000FA
:10000000F82941018030930041019E0141019A018C
:1000100008004101131413180B2841010D08F100C9
:100020000C08F200080041010D08F000F036F0362F
:10003000F036F03608007E0109309D004501F930A8
:100040008D00460101308D00F4308C0046018F3068
:100050008E004501013090004501A0308E00460120
:100060008E1308004001F01D4228701D42284001F7
:1000700097144001791C3F2846018E17080046015D
:100080008E1308004001971046018E134001F901BC
:1000900008004001113091007E010130B80040019C
:1000A0009701400192017E01C3014001BD309300E0
:1000B0007E01CE01400194017E01D90140019901E8
:1000C0004001033095007E01E40108006430F50032
:1000D0006C20F50B682808001430F6007220F60B2F
:1000E0006E280800A330F700F70B742808004001C1
:1000F0000E083C39F300F336F33608007E010A306F
:10010000A1004501F930930046019F30920044015F
:1001100029309E004501013096004501A030940031
:100120004601FF3091000030900066200800400139
:1001300071084601910040017208460190000800D4
:100140004001901808006C20400190180800400100
:100150000130FB064001901CAA286C2008004001D9
:100160007B080319B828400117147008F400080030
:10017000400117107308F40008004001101C08002B
:1001800001007408C62040019900080082073F342E
:1001900006345B344F3466346D347D3407347F3439
:1001A0006F3477347C3439345E34793471340800F8
:1001B0007D0155308F00AA308F000F107D01043073
:1001C00094007D0155308F00AA308F000F14440138
:1001D00000309700440103309400440193019201E0
:1001E0004E0110114001A101A0014001A301A20193
:1001F000080040017A1C0800FD28440114107220F8
:10020000440112084001A000440113084001A1006C
:100210004401930192014401141413210800400188
:10022000A301A20108004001A301A20140011E3068
:10023000AA00400120084001A20740012108400116
:10024000A33D4001AA0B1929080044010130910087
:100250000B308D00DC308C004E0110104401313029
:100260008E004001F9014001FA01F80108004E0139
:10027000101C0800101044010E1044010B308D00BA
:10028000DC308C0044010E144001F80A0230780280
:10029000031D0800F80140010130F906400101305A
:1002A000FA0608007D0155308F00AA308F000F102C
:1002B0007E011030A6007D0155308F00AA308F00DE
:1002C0000F14420119309B009C01420124309E0012
:1002D000420180309D00080042019F114E010F1E17
:1002E0006F2942019A0008004D306E2165306E2161
:1002F00061306E2173306E2175306E2172306E2147
:1003000069306E216E306E2167306E2120306E2193
:1003100046306E2161306E216E306E2120306E21AC
:1003200053306E2170306E2165306E2165306E2144
:1003300064306E210D306E210A306E2140017A1C2E
:10034000080040011715C52152306E2150306E2132
:100350004D306E213D306E2140012608303E6E2129
:1003600040012708303E6E2140012808303E6E21B2
:1003700040012908303E6E210D306E210A306E2179
:10038000400117114001FA01080040014001A60197
:10039000A701A801A9012308A5002208A400E830AC
:1003A000A4020330A53B031CD729A60ACF29E830B5
:1003B000A4070330A53D6430A4020030A53B031C14
:1003C000E329A70ADB296430A4070030A53D0A30E1
:1003D000A4020030A53B031CEF29A80AE7290A3034
:1003E000A4070030A53D400124084001A9000800F1
:1003F000492001201B2025217E20D82052214001A8
:10040000FB01F401400117107421BD2009201320C5
:100410007720A020AF20C120372132209720F9205B
:040420009E21052AEA
:020000040001F9
:02000E00FA17DF
:080010003F379F3FFF2FFF3F28
:00000001FF
